:1000000000308A00552A00000A108A100A1182075F
:1000100028340C34013406340A108A100A1182077D
:10002000313432343334343435343634373438348C
:1000300039342A34303423340A108A100A118207E2
:10004000573472346F346E346734203449346E342C
:1000500070347534743400340A108A100A1182071F
:10006000573472346F346E34673420344634753408
:100070006E346334743469346F346E3400348A11EE
:100080000A12782A3B30840083130008031956288B
:100090000130F800F701F70B4B28F80B4A284A30DB
:1000A000F700F70B51285428800B48280034420EE3
:1000B000F039F7000F3008057704880000000814B5
:1000C0006128081000348810F030831688008312ED
:1000D00008150000081400000808080E0F39C200B7
:1000E00008100000081400000808080E0F39C100AD
:1000F00008100030831688008312420EF700F0309B
:10010000F70577084104F8007808C100C11B64288E
:100110003F1C88103F1888140000081100000810C8
:10012000400EC1000F30C1054108C20057204008F1
:100130000F39C100C20057200034003083168800F8
:1001400083128810081108100F30BB0042200130C4
:10015000B8003808033C031CB5280330C200572000
:100160000530BB004220B80AA9280230C20057203F
:10017000B8013808033C031CC62838080420B9001D
:10018000BF013908C0006320B80AB9280034F7015C
:10019000F801390803103A18F707F70CF80CBA18E9
:1001A000F707F70CF80C3A19F707F70CF80CBA191F
:1001B000F707F70CF80C3A1AF707F70CF80CBA1A0D
:1001C000F707F70CF80C3A1BF707F70CF80CBA1BFB
:1001D000F707F70CF80C0034B501A00A2008213C01
:1001E00003184B2923080319FC28013A0319022993
:1001F000033A031908290E29DE308316860083127C
:1002000086000E29BE3083168600831286000E29D2
:100210007E3083168600831286000E29211C1A293F
:1002200006081E391E3C031D192921102208B5009D
:10023000A2014A2906081E391E3C03194529060851
:100240000239031D2529B601392906080439031D81
:100250002C290130B600392906080839031D332935
:100260000230B600392906081039031D3929033038
:10027000B6003608B9000330BA00C7202308780753
:100280000C20F800A20021144A29A30A2308033CE9
:100290000319A301A001FE308316860083123508DE
:1002A000F80000343A080C3A03195D29063A03199C
:1002B0006529023A03197B298029BF010130C0005A
:1002C00063200230BB00422086290130BB0002308F
:1002D000BC003C0B6C296F294030BD007029BD016A
:1002E00001303B02BD073D088038BE00BF013E081B
:1002F000C00063208629BF011030C000632086291A
:100300000130BF003A08C0006320862900349D20D8
:10031000370803198F29013A03199A29A529B80129
:1003200038081C20003803199929B80ABA0052214C
:100330009029B029B80138082C2000380319A429C5
:10034000B80ABA0052219B29B029B80138081C20EC
:1003500000380319AF29B80ABA005221A629B029DA
:100360000034B6013508303A0319D529013A03198A
:10037000D729033A0319DA29013A0319DD29073A83
:100380000319E029013A0319E329033A0319E6297D
:10039000013A0319E9290F3A0319EC29013A031923
:1003A000EF297A3A0319F229F629B601FB2901301F
:1003B000B600FB290230B600FB290330B600FB294A
:1003C0000430B600FB290530B600FB290630B60024
:1003D000FB290730B600FB290830B600FB2909309D
:1003E000B600FB299D203008B600FB29B701872104
:1003F0003008B600FB293608F80000343508433CC5
:10040000031D062A9D206530F8001E2A35082B3C66
:1004100003191C2A35082D3C03191C2A3508783C81
:1004200003191C2A35082F3C03191C2A0130B70078
:1004300087216530F8001E2A3508F8008A110A1253
:10044000922A3A08F80139020318292A3908F700D4
:10045000352AF7010830BB00B90DF70D3A087702CD
:100460000318F700F80DBB0B2C2A0034B701B801B4
:100470003608B9000A30BA0021227808B800B80856
:100480000319472A30303807B900BA00522138081A
:10049000B9000A30BA00C72078083602B7003030F9
:1004A0003707B900BA0052210034840183131F308A
:1004B0008305193083169900A63098009030831276
:1004C000980083161F149F141F159F1107309C005E
:1004D0008312A0012110A201A301A401A501AB0177
:1004E0002B30AC00AD01B2012B30B300B4013F287A
:1004F0009D20EC207808B1009D203108BA005221DF
:100500003108B500B1217808B20030083202031971
:10051000E82AEC207808B1003108BA0052213108ED
:10052000B500FE297808B3003308653C0319E82AB2
:10053000EC207808B1003108BA0052213108B5002A
:10054000B1217808B400300834020319E82AEC20FD
:100550007808B1003108BA00522131083D3C031D32
:10056000E02A33082B3A0319BF2A063A0319C52A91
:10057000553A0319CB2A573A0319D52ADF2A3408EA
:100580003207B500B6003622DF2A34083202B50041
:10059000B6003622DF2A3208B9003408BA00C72074
:1005A0007808B500B6003622DF2A3208B9003408D0
:1005B000BA0021227808B500B6003622DF2AE82AE0
:1005C0003108433C031DE62A9D20E82AB701872114
:0405D000792A630021
:02400E0039393E
:00000001FF
;PIC16F877A
